{
  "contractName": "LandRegistry",
  "abi": [
    {
      "anonymous": false,
      "inputs": [
        {
          "indexed": false,
          "internalType": "uint256",
          "name": "landId",
          "type": "uint256"
        },
        {
          "indexed": false,
          "internalType": "address",
          "name": "owner",
          "type": "address"
        }
      ],
      "name": "LandRegistered",
      "type": "event"
    },
    {
      "anonymous": false,
      "inputs": [
        {
          "indexed": false,
          "internalType": "uint256",
          "name": "landId",
          "type": "uint256"
        },
        {
          "indexed": false,
          "internalType": "address",
          "name": "from",
          "type": "address"
        },
        {
          "indexed": false,
          "internalType": "address",
          "name": "to",
          "type": "address"
        }
      ],
      "name": "LandTransferred",
      "type": "event"
    },
    {
      "inputs": [],
      "name": "landCount",
      "outputs": [
        {
          "internalType": "uint256",
          "name": "",
          "type": "uint256"
        }
      ],
      "stateMutability": "view",
      "type": "function",
      "constant": true
    },
    {
      "inputs": [
        {
          "internalType": "uint256",
          "name": "",
          "type": "uint256"
        }
      ],
      "name": "lands",
      "outputs": [
        {
          "internalType": "uint256",
          "name": "landId",
          "type": "uint256"
        },
        {
          "internalType": "string",
          "name": "location",
          "type": "string"
        },
        {
          "internalType": "address",
          "name": "owner",
          "type": "address"
        },
        {
          "internalType": "bool",
          "name": "isRegistered",
          "type": "bool"
        }
      ],
      "stateMutability": "view",
      "type": "function",
      "constant": true
    },
    {
      "inputs": [
        {
          "internalType": "uint256",
          "name": "_landId",
          "type": "uint256"
        },
        {
          "internalType": "string",
          "name": "_location",
          "type": "string"
        }
      ],
      "name": "registerLand",
      "outputs": [],
      "stateMutability": "nonpayable",
      "type": "function"
    },
    {
      "inputs": [
        {
          "internalType": "uint256",
          "name": "_landId",
          "type": "uint256"
        },
        {
          "internalType": "address",
          "name": "_newOwner",
          "type": "address"
        }
      ],
      "name": "transferLand",
      "outputs": [],
      "stateMutability": "nonpayable",
      "type": "function"
    },
    {
      "inputs": [
        {
          "internalType": "uint256",
          "name": "_landId",
          "type": "uint256"
        }
      ],
      "name": "getLand",
      "outputs": [
        {
          "components": [
            {
              "internalType": "uint256",
              "name": "landId",
              "type": "uint256"
            },
            {
              "internalType": "string",
              "name": "location",
              "type": "string"
            },
            {
              "internalType": "address",
              "name": "owner",
              "type": "address"
            },
            {
              "internalType": "bool",
              "name": "isRegistered",
              "type": "bool"
            }
          ],
          "internalType": "struct LandRegistry.Land",
          "name": "",
          "type": "tuple"
        }
      ],
      "stateMutability": "view",
      "type": "function",
      "constant": true
    }
  ],
  "bytecode": "0x608060405234801561000f575f80fd5b506110298061001d5f395ff3fe608060405234801561000f575f80fd5b5060043610610055575f3560e01c806347b24c0814610059578063c798ff7d14610075578063d7bce65814610091578063e261f1e5146100af578063f02dd53f146100e2575b5f80fd5b610073600480360381019061006e91906107fb565b610112565b005b61008f600480360381019061008a91906108af565b610298565b005b610099610428565b6040516100a691906108fc565b60405180910390f35b6100c960048036038101906100c49190610915565b61042e565b6040516100d994939291906109e3565b60405180910390f35b6100fc60048036038101906100f79190610915565b61050b565b6040516101099190610b02565b60405180910390f35b5f808381526020019081526020015f2060020160149054906101000a900460ff1615610173576040517f08c379a000000000000000000000000000000000000000000000000000000000815260040161016a90610b6c565b60405180910390fd5b60405180608001604052808381526020018281526020013373ffffffffffffffffffffffffffffffffffffffff168152602001600115158152505f808481526020019081526020015f205f820151815f015560208201518160010190816101da9190610d84565b506040820151816002015f6101000a81548173ffffffffffffffffffffffffffffffffffffffff021916908373ffffffffffffffffffffffffffffffffffffffff16021790555060608201518160020160146101000a81548160ff02191690831515021790555090505060015f81548092919061025690610e80565b91905055507fcb4990052f95f6057496d19524f6c3163f50af9f33f2c15b092928e03414323e823360405161028c929190610ec7565b60405180910390a15050565b5f808381526020019081526020015f2060020160149054906101000a900460ff166102f8576040517f08c379a00000000000000000000000000000000000000000000000000000000081526004016102ef90610f38565b60405180910390fd5b3373ffffffffffffffffffffffffffffffffffffffff165f808481526020019081526020015f206002015f9054906101000a900473ffffffffffffffffffffffffffffffffffffffff1673ffffffffffffffffffffffffffffffffffffffff1614610398576040517f08c379a000000000000000000000000000000000000000000000000000000000815260040161038f90610fa0565b60405180910390fd5b805f808481526020019081526020015f206002015f6101000a81548173ffffffffffffffffffffffffffffffffffffffff021916908373ffffffffffffffffffffffffffffffffffffffff1602179055507f1080b2f211753e5090f26ef7ffdc6bb3e66a125c7290200d10b502160bb1f56682338360405161041c93929190610fbe565b60405180910390a15050565b60015481565b5f602052805f5260405f205f91509050805f01549080600101805461045290610bb7565b80601f016020809104026020016040519081016040528092919081815260200182805461047e90610bb7565b80156104c95780601f106104a0576101008083540402835291602001916104c9565b820191905f5260205f20905b8154815290600101906020018083116104ac57829003601f168201915b505050505090806002015f9054906101000a900473ffffffffffffffffffffffffffffffffffffffff16908060020160149054906101000a900460ff16905084565b61051361063e565b5f808381526020019081526020015f206040518060800160405290815f820154815260200160018201805461054790610bb7565b80601f016020809104026020016040519081016040528092919081815260200182805461057390610bb7565b80156105be5780601f10610595576101008083540402835291602001916105be565b820191905f5260205f20905b8154815290600101906020018083116105a157829003601f168201915b50505050508152602001600282015f9054906101000a900473ffffffffffffffffffffffffffffffffffffffff1673ffffffffffffffffffffffffffffffffffffffff1673ffffffffffffffffffffffffffffffffffffffff1681526020016002820160149054906101000a900460ff1615151515815250509050919050565b60405180608001604052805f8152602001606081526020015f73ffffffffffffffffffffffffffffffffffffffff1681526020015f151581525090565b5f604051905090565b5f80fd5b5f80fd5b5f819050919050565b61069e8161068c565b81146106a8575f80fd5b50565b5f813590506106b981610695565b92915050565b5f80fd5b5f80fd5b5f601f19601f8301169050919050565b7f4e487b71000000000000000000000000000000000000000000000000000000005f52604160045260245ffd5b61070d826106c7565b810181811067ffffffffffffffff8211171561072c5761072b6106d7565b5b80604052505050565b5f61073e61067b565b905061074a8282610704565b919050565b5f67ffffffffffffffff821115610769576107686106d7565b5b610772826106c7565b9050602081019050919050565b828183375f83830152505050565b5f61079f61079a8461074f565b610735565b9050828152602081018484840111156107bb576107ba6106c3565b5b6107c684828561077f565b509392505050565b5f82601f8301126107e2576107e16106bf565b5b81356107f284826020860161078d565b91505092915050565b5f806040838503121561081157610810610684565b5b5f61081e858286016106ab565b925050602083013567ffffffffffffffff81111561083f5761083e610688565b5b61084b858286016107ce565b9150509250929050565b5f73ffffffffffffffffffffffffffffffffffffffff82169050919050565b5f61087e82610855565b9050919050565b61088e81610874565b8114610898575f80fd5b50565b5f813590506108a981610885565b92915050565b5f80604083850312156108c5576108c4610684565b5b5f6108d2858286016106ab565b92505060206108e38582860161089b565b9150509250929050565b6108f68161068c565b82525050565b5f60208201905061090f5f8301846108ed565b92915050565b5f6020828403121561092a57610929610684565b5b5f610937848285016106ab565b91505092915050565b5f81519050919050565b5f82825260208201905092915050565b5f5b8381101561097757808201518184015260208101905061095c565b5f8484015250505050565b5f61098c82610940565b610996818561094a565b93506109a681856020860161095a565b6109af816106c7565b840191505092915050565b6109c381610874565b82525050565b5f8115159050919050565b6109dd816109c9565b82525050565b5f6080820190506109f65f8301876108ed565b8181036020830152610a088186610982565b9050610a1760408301856109ba565b610a2460608301846109d4565b95945050505050565b610a368161068c565b82525050565b5f82825260208201905092915050565b5f610a5682610940565b610a608185610a3c565b9350610a7081856020860161095a565b610a79816106c7565b840191505092915050565b610a8d81610874565b82525050565b610a9c816109c9565b82525050565b5f608083015f830151610ab75f860182610a2d565b5060208301518482036020860152610acf8282610a4c565b9150506040830151610ae46040860182610a84565b506060830151610af76060860182610a93565b508091505092915050565b5f6020820190508181035f830152610b1a8184610aa2565b905092915050565b7f4c616e6420616c726561647920726567697374657265640000000000000000005f82015250565b5f610b5660178361094a565b9150610b6182610b22565b602082019050919050565b5f6020820190508181035f830152610b8381610b4a565b9050919050565b7f4e487b71000000000000000000000000000000000000000000000000000000005f52602260045260245ffd5b5f6002820490506001821680610bce57607f821691505b602082108103610be157610be0610b8a565b5b50919050565b5f819050815f5260205f209050919050565b5f6020601f8301049050919050565b5f82821b905092915050565b5f60088302610c437fffffffffffffffffffffffffffffffffffffffffffffffffffffffffffffffff82610c08565b610c4d8683610c08565b95508019841693508086168417925050509392505050565b5f819050919050565b5f610c88610c83610c7e8461068c565b610c65565b61068c565b9050919050565b5f819050919050565b610ca183610c6e565b610cb5610cad82610c8f565b848454610c14565b825550505050565b5f90565b610cc9610cbd565b610cd4818484610c98565b505050565b5b81811015610cf757610cec5f82610cc1565b600181019050610cda565b5050565b601f821115610d3c57610d0d81610be7565b610d1684610bf9565b81016020851015610d25578190505b610d39610d3185610bf9565b830182610cd9565b50505b505050565b5f82821c905092915050565b5f610d5c5f1984600802610d41565b1980831691505092915050565b5f610d748383610d4d565b9150826002028217905092915050565b610d8d82610940565b67ffffffffffffffff811115610da657610da56106d7565b5b610db08254610bb7565b610dbb828285610cfb565b5f60209050601f831160018114610dec575f8415610dda578287015190505b610de48582610d69565b865550610e4b565b601f198416610dfa86610be7565b5f5b82811015610e2157848901518255600182019150602085019450602081019050610dfc565b86831015610e3e5784890151610e3a601f891682610d4d565b8355505b6001600288020188555050505b505050505050565b7f4e487b71000000000000000000000000000000000000000000000000000000005f52601160045260245ffd5b5f610e8a8261068c565b91507fffffffffffffffffffffffffffffffffffffffffffffffffffffffffffffffff8203610ebc57610ebb610e53565b5b600182019050919050565b5f604082019050610eda5f8301856108ed565b610ee760208301846109ba565b9392505050565b7f4c616e64206e6f742072656769737465726564000000000000000000000000005f82015250565b5f610f2260138361094a565b9150610f2d82610eee565b602082019050919050565b5f6020820190508181035f830152610f4f81610f16565b9050919050565b7f4f6e6c79206f776e65722063616e207472616e736665720000000000000000005f82015250565b5f610f8a60178361094a565b9150610f9582610f56565b602082019050919050565b5f6020820190508181035f830152610fb781610f7e565b9050919050565b5f606082019050610fd15f8301866108ed565b610fde60208301856109ba565b610feb60408301846109ba565b94935050505056fea26469706673582212208ed515000cdba9bf44ac30999200be90f200028137517bcba20a5d8a272309ae64736f6c63430008150033",
  "immutableReferences": {},
  "source": "// SPDX-License-Identifier: MIT\r\npragma solidity ^0.8.0;\r\n\r\ncontract LandRegistry {\r\n    struct Land {\r\n        uint landId;\r\n        string location;\r\n        address owner;\r\n        bool isRegistered;\r\n    }\r\n\r\n    mapping(uint => Land) public lands;\r\n    uint public landCount;\r\n\r\n    event LandRegistered(uint landId, address owner);\r\n    event LandTransferred(uint landId, address from, address to);\r\n\r\n    function registerLand(uint _landId, string memory _location) public {\r\n        require(!lands[_landId].isRegistered, \"Land already registered\");\r\n        lands[_landId] = Land(_landId, _location, msg.sender, true);\r\n        landCount++;\r\n        emit LandRegistered(_landId, msg.sender);\r\n    }\r\n\r\n    function transferLand(uint _landId, address _newOwner) public {\r\n        require(lands[_landId].isRegistered, \"Land not registered\");\r\n        require(lands[_landId].owner == msg.sender, \"Only owner can transfer\");\r\n        lands[_landId].owner = _newOwner;\r\n        emit LandTransferred(_landId, msg.sender, _newOwner);\r\n    }\r\n\r\n    function getLand(uint _landId) public view returns (Land memory) {\r\n        return lands[_landId];\r\n    }\r\n}",
  "sourcePath": "D:\\Projects\\land_registration\\contracts\\LandRegistry.sol",
  "compiler": {
    "name": "solc",
    "version": "0.8.21+commit.d9974bed.Emscripten.clang"
  },
  "schemaVersion": "3.4.16",
  "updatedAt": "2025-03-02T16:15:16.987Z",
  "networkType": "ethereum",
  "devdoc": {
    "kind": "dev",
    "methods": {},
    "version": 1
  },
  "userdoc": {
    "kind": "user",
    "methods": {},
    "version": 1
  }
}